:020000040800F2
:10000000E01900209D010008E70E0008E30E00083B
:10001000E50E00082D020008951100080000000000
:1000200000000000000000000000000005010008C2
:10003000810200080000000049010008290F0008A3
:10004000B7010008B7010008B7010008B7010008B0
:10005000B7010008B7010008B7010008B7010008A0
:10006000B7010008B7010008B7010008B701000890
:10007000B7010008B7010008B7010008B701000880
:10008000B7010008B7010008B7010008B701000870
:10009000B7010008B7010008B7010008B701000860
:1000A000B7010008B7010008B7010008B701000850
:1000B000B7010008B7010008B50F0008B701000834
:1000C000B7010008B7010008B7010008B701000830
:1000D000B7010008B7010008B7010008B701000820
:1000E000B7010008B7010008B7010008DFF810D019
:1000F00000F08AF8004800472D120008AFF3008096
:10010000E0190020224B19680868B0E8F00F80F36E
:100110000988BFF36F8F4FF0000080F311884EF015
:100120000D0E70470000000006480068006880F36C
:10013000088862B661B6BFF34F8FBFF36F8F00DFE1
:1001400000BF00BF08ED00E0EFF30980BFF36F8F41
:100150000F4B1A6820E9F00F106008B54FF05000FF
:1001600080F31188BFF34F8FBFF36F8F01F07EFFD5
:100170004FF0000080F31188BDE808401968086856
:10018000B0E8F00F80F30988BFF36F8F704700BFAE
:1001900020000020EFF305807047000006488047EC
:1001A00006480047FEE7FEE7FEE7FEE7FEE7FEE75C
:1001B000FEE7FEE7FEE7FEE7B30F0008ED000008EC
:1001C00040EA01039B0703D009E008C9121F08C0D9
:1001D000042AFAD203E011F8013B00F8013B521E59
:1001E000F9D27047D2B201E000F8012B491EFBD2D0
:1001F00070470022F6E710B513460A460446194632
:10020000FFF7F0FF204610BD064C074D06E0E06802
:1002100040F0010394E8070098471034AC42F6D34D
:10022000FFF768FF042B0008242B0008FEE70000FE
:1002300001A000F0B1BF000048656C6C6F206672D1
:100240006F6D206175746F2072656C6F61642054EE
:10025000696D65723031200A000000000349896829
:10026000884202D102A000F097BF70470000002032
:100270007475726E206F6666204C4544200A00003B
:10028000704700002DE9F84FDFF8B891002409F11C
:10029000040A0AF1040B23460F270BF1040EC9E0F0
:1002A0000125A5402A40AA427DD1674ED1F804C05D
:1002B000ACEB0608B44532D014DCBCF1030F3AD0E5
:1002C00009DCBCF1000F2AD0BCF1010F1CD0BCF13D
:1002D000020F31D11DE0BCF1110F17D0BCF1120F8C
:1002E0002AD119E0B8F5881F19D006DCB8F5803F8F
:1002F00015D0B8F5801F1FD111E0B8F5001F0ED042
:10030000B8F5041F18D10AE0CB6815E0CB681B1DB7
:1003100012E0CB6808330FE0CB680C330CE08B683D
:100320002BB1012B4FF0080303D0456104E00423F7
:1003300002E0056100E00023FF2A01D8064601E043
:1003400000F104064FEA840501D9A5F12005D6F88D
:10035000008007FA05FC28EA0C0803FA05F548EACC
:100360000508C6F800804D68ED0062D5374DAE69CE
:1003700046F00106AE61AD6924F0030605F0010503
:100380000095334D06EB050CDCF80850A607360F38
:1003900007FA06F825EA0805DFF8B880404503D1DA
:1003A0004FF0000817E044E0DFF8AC80404502D190
:1003B0004FF001080FE0DFF8A480404502D14FF074
:1003C000020808E0DFF89880404502D14FF00308AA
:1003D00001E04FF0040808FA06F848EA0508CCF8EE
:1003E00008804D68D9F80060ED034D4601D51643ED
:1003F00000E096432E604D68DAF80060AD03554684
:1004000001D5164300E096432E604D68DBF800608E
:10041000ED025D4601D5164300E096432E604D681F
:10042000DEF80060AD02754601D5164300E0964344
:100430002E60641C0D682A46E5407FF431AFBDE8AC
:10044000F88F00000004014000001110001002406D
:100450000000014000080140000C01400010014074
:10046000001401408068084000D00120704700005F
:100470000148806870470000100000200248816831
:10048000027811448160704710000020074810B5C1
:10049000016841F010010160032000F095F8002090
:1004A00000F006F800F03EF8002010BD00200240E9
:1004B00000B5014687B000221E2000F065F81E201E
:1004C00000F054F81348C16941F00401C161C069EA
:1004D00005A900F004000690684600F01DF900F040
:1004E0003BF90D494000B0FBF1F10D480B4A491EA4
:1004F0000260416040F2E7320021C0E903218160DF
:1005000000F012FB10B1012007B000BD044800F05C
:1005100039FBF9E70010024040420F00000800409C
:10052000800700200F4808B5816941F00101816111
:10053000816901F001010091C16941F08051C161FF
:10054000C069002200F0805000900F21901E00F042
:100550001BF80548416821F0E06141F000714160FD
:1005600008BD00000010024000000140002809DB27
:1005700000F01F02012191404009800000F1E020BD
:10058000C0F8001170470000F0B40E4B1B680C4619
:10059000C3F30223C3F10705042D00D90425191D57
:1005A000072901D2002300E0DB1E012606FA05F12F
:1005B000491E214099409E40761E16403143F0BCB2
:1005C00000F0F2BD0CED00E0064900F007020868FB
:1005D0004FF6FF03184040EA0220034A1043086028
:1005E000704700000CED00E00000FA052DE9F0472F
:1005F0000F46050061D0434E306800F00700B84256
:1006000009D2306820F0070038433060306800F0CD
:100610000700B84251D128683B4C810712D54007EA
:1006200003D5606840F4E06060602878000703D577
:10063000606840F4605060606068A96820F0F00075
:10064000084360602878C00728D06868012810D067
:100650002168022810D0890700292EDA616821F06C
:10066000030101436160FFF703FF804641F28839CF
:100670000DE021688903EFE78901EDE7FFF7F8FE58
:10068000A0EB0801494502D90320BDE8F087606866
:10069000696800F00C00B0EB810FEFD1306800F01A
:1006A0000700B8420BD9306820F0070038433060AB
:1006B000306800F00700B84201D00120E5E7287853
:1006C000400705D56068E96820F4E0600843606091
:1006D0002878000706D56068296920F4605040EA50
:1006E000C100606000F058F86168084AC1F3031166
:1006F000515CC8400649086006480068FFF7D8FE0C
:100700000020C2E70020024000100240E02A00085A
:100710001C000020140000200F2202600C4A5368C5
:1007200003F003034360536803F0F00383605368EE
:1007300003F4E063C36052684FF4E06303EAD2025B
:1007400002610448006800F007000860704700007C
:100750000010024000200240044805490068496832
:10076000044AC1F30221515CC84070471C000020BC
:1007700000100240F02A0008044805490068496852
:10078000044AC1F3C221515CC84070471C000020DC
:1007900000100240F02A000812A185B00FC98DE8B0
:1007A0000F0014A0144A006804905168134801F027
:1007B0000C03042B10D0082B0ED1C1F38343C903C3
:1007C0001DF803000AD5516804AAC1F34041515CE9
:1007D0000A4A5043B0FBF1F005B07047084948435E
:1007E000FAE7000002030405060708090A0B0C0DCE
:1007F0000E0F1010010200000010024000127A00DB
:1008000000093D002DE9F84F040070D02078C04D5C
:10081000C00749D06868C0F38100012807D0686824
:10082000C0F38100022809D16868C00306D5286892
:10083000800339D560680028E7D035E06068B0F5FE
:10084000803F0BD010B1B0F5A02F11D0286820F454
:1008500080302860286820F4802002E0286840F476
:1008600080302860606890B1FFF702FE06460AE01B
:10087000286840F480202860F0E700BFFFF7F8FD0B
:10088000801B642873D828688003F7D50CE0FFF735
:10089000EFFD064605E000BFFFF7EAFD801B642878
:1008A000F0D828688003F7D420789A4E80074FF05C
:1008B00001094FF0000839D5686810F00C0F07D017
:1008C0006868C0F38100022809D16868C00306D4B3
:1008D0002868800714D52069012808D110E0206914
:1008E000B0B1C6F80090FFF7C3FD074605E00AE186
:1008F000FFF7BEFDC01B0228C4D828688007F7D5C3
:100900002868616920F0F80040EAC10028600DE025
:10091000C6F80080FFF7ACFD074604E0FFF7A8FD2E
:10092000C01B022823D828688007F7D42078000746
:100930002CD57948A169D9B1C0F80090FFF798FD8E
:10094000074604E0FFF794FDC01B02280FD8686A31
:100950008007F7D571484FF4FA510068B0FBF1F009
:10096000009000BF0098411E0091FAD20EE080E096
:10097000C0F80080FFF77CFD074604E0FFF778FD34
:10098000C01B022875D8686A8007F7D42078400712
:1009900060D5E8690027C00008D4E86940F08050BD
:1009A000E861E869012700F0805000905C48016828
:1009B000C90513D40168834641F480710160FFF7D3
:1009C00057FD824606E000BFFFF752FDA0EB0A008C
:1009D00064284ED8DBF80000C005F5D5E068012892
:1009E0000AD008B1052813D0286A20F00100286237
:1009F000286A20F0040002E0286A40F00100286222
:100A0000E06841F2883B98B1FFF732FD82460BE087
:100A1000286A40F004002862EEE700BFFFF728FDD7
:100A2000A0EB0A0159455AD8286A8007F6D50CE090
:100A3000FFF71EFD824605E0FFF71AFDA0EB0A0155
:100A400059454CD8286A8007F6D41FB1E86920F0D0
:100A50008050E861E06988B36968C1F381010229C7
:100A600044D00228C6F8608004D0FFF701FD044698
:100A700038E034E0FFF7FCFC074604E0FFF7F8FC41
:100A8000C01B02282BD828688001F7D4206AB0F553
:100A9000803F05D16868A16820F400300843686091
:100AA000D4E908010843696821F4741108436860B7
:100AB000C6F86090FFF7DCFC044606E025E000BFC6
:100AC000FFF7D6FC001B022809D828688001F7D55B
:100AD0001BE000BFFFF7CCFC001B022802D903205B
:100AE000BDE8F88F28688001F4D40EE00128F7D023
:100AF0006868226A00F48031914204D1616A00F48E
:100B00007010884201D00120EAE70020E8E70000E9
:100B10000010024000004242800442421C000020BB
:100B2000007000407047704710B5040003D094F87F
:100B30003D0010B107E0012010BD002084F83C000A
:100B4000204600F01EF8022084F83D00211D206898
:100B500000F036FA012084F8460084F83E0084F85C
:100B60003F0084F8400084F8410084F8420084F893
:100B7000430084F8440084F8450084F83D000020D8
:100B800010BD704790F83D10012901D00120704739
:100B9000022180F83D100168CA6842F00102CA6073
:100BA00000680B49884208D0B0F1804F05D0094950
:100BB000884202D00849884204D1816801F00701C7
:100BC000062903D0016841F001010160002070474F
:100BD000002C01400004004000080040704770B540
:100BE0000446006801694FF00005C943890715D420
:100BF000C168C943890711D4E91E0161012020772A
:100C0000206880698007204602D0FFF7E7FF04E0F4
:100C100000F098F8204600F096F8257720680169E2
:100C2000C943490717D4C168C943490713D46FF0B2
:100C300004010161022020772068806910F4407F60
:100C4000204602D0FFF7CAFF04E000F07BF8204600
:100C500000F079F8257720680169C943090716D49F
:100C6000C168C943090712D46FF00801016104206B
:100C700020772068C0698007204602D0FFF7AEFFCA
:100C800004E000F05FF8204600F05DF8257720686A
:100C90000169C943C90617D4C168C943C90613D439
:100CA0006FF010010161082020772068C06910F4FE
:100CB000407F204602D0FFF791FF04E000F042F8A9
:100CC000204600F040F8257720680169C943C9072C
:100CD00008D1C168C943C90704D1891E01612046F2
:100CE00000F032F820680169C943090609D4C168D7
:100CF000C943090605D46FF0800101612046FFF762
:100D000011FF20680169C943490609D4C168C94374
:100D1000490605D46FF040010161204600F01EF83D
:100D200020680169C94389060BD4C168C943890693
:100D300007D46FF0200101612046BDE87040FFF745
:100D4000F2BE70BD7047704700680349884201D108
:100D5000FFF794BB7047000000080040704770B573
:100D6000040004D094F83900002510B106E00120F9
:100D700070BD84F83850204600F022F8242084F812
:100D800039002068C16821F40051C160204600F09C
:100D900073F92068016921F490410161206841697B
:100DA00021F02A0141612068C16841F40051C1600D
:100DB000E563202084F8390084F83A00002070BDF3
:100DC00030B585B000240094019402940394006827
:100DD0001449884223D11448C16941F40031C161EA
:100DE000C16901F400310491816941F0040181611C
:100DF00080690E4D00F00400049004200090022051
:100E000001900320039069462846FFF73BFA08202B
:100E1000CDE90004694628460294FFF733FA05B08D
:100E200030BD0000004400400010024000080140B6
:100E30002DE9F843044690F839001F4616460D4642
:100E400020284CD1C5B1BEB194F83800012846D055
:100E5000012084F838004FF00008C4F83C802120BD
:100E600084F83900FFF704FBA6848146E684A06875
:100E7000B0F5805F03D004E00120BDE8F88320696D
:100E800028B12E465FF0000584F838800EE0002679
:100E9000FAE78021204600F04BF9A0B9AEB116F870
:100EA000010B21684860E08C401EE084E08C4B46DA
:100EB0004FF0000200970028EBD14FF04001204690
:100EC00000F036F930B10320D7E735F8020BC0F354
:100ED0000800E6E7202084F839000020CDE7022052
:100EE000CBE7FEE7FEE7FEE707484FF4FA6140680C
:100EF00000F074FA4FF47A7404A000F04DF9204623
:100F000000F016FAF8E700000000002048656C6C5D
:100F10006F2066726F6D2064656661756C742074F5
:100F200061736B200A00000010B5502080F3118817
:100F3000BFF34F8FBFF36F8F01F0E2FB18B104498D
:100F40004FF080500860002080F3118810BD000031
:100F500004ED00E030B58FB028216846FFF749F96D
:100F600014210AA8FFF745F901210804CDE9001072
:100F70000024029402250491CDE907504FF4E010BB
:100F800009906846FFF73EFC08B172B6FEE70F20F5
:100F9000CDE90A054FF48060CDE90C4002210AA892
:100FA0000E94FFF723FB002801D072B6FEE70FB0C6
:100FB00030BD70470148FFF712BE000080070020D7
:100FC000F0B50268164B174C174D4FF0804798420A
:100FD00005D0B84203D0A04201D0A84203D122F0EC
:100FE00070064A683243984205D0B84203D0A04206
:100FF00001D0A84203D122F44074CA6822434C694C
:1010000022F08002224302608A68C2620A68826219
:10101000984201D10969016301214161F0BD0000DD
:10102000002C0140000400400008004008B50C4EB0
:101030000C4D0A2410213046FFF714FA58B901F07C
:1010400059FB0246009400230121A86801F006FD27
:1010500005A000F0A1F8142000F06AF9EAE700000A
:1010600000080140000000207475726E206F6E2031
:101070004C4544200A00000070B504460068016930
:10108000E26821F44051114301612169A0680843DD
:10109000616908432168CA6841F20C639A430243BC
:1010A000CA6020684169A26921F44071114341611D
:1010B0001E492068884202D1FFF75EFB01E0FFF77E
:1010C0004BFB00EBC00101EB001260686421800063
:1010D000B2FBF0F3B3FBF1F36FF018067343B2FB0E
:1010E000F0F5B2FBF0F605EB8305322303EB0515B3
:1010F000B5FBF1F5B6FBF1F605F0F00505EB0615CD
:10110000B2FBF0F6B2FBF0F0B0FBF1F06FF01802BA
:10111000504306EB800003EB0010B0FBF1F02168B8
:1011200000F00F002844886070BD000000380140C6
:101130002DE9F041984617460E460446069D1DE0EF
:10114000681C1BD02DB1FFF793F9A0EB0800A84253
:1011500014D92068C16821F4D071C1602068416948
:1011600021F001014161202084F8390084F83A001F
:10117000002084F838000320BDE8F0812068006872
:1011800036EA000004D00020B842D9D00020F3E7AE
:101190000120F9E7FEE70000014A024900F023B808
:1011A00009120008940000200907090E002804DB3A
:1011B00000F1E02080F80014704700F00F0000F10B
:1011C000E02080F8141D704702E008C8121F08C113
:1011D000002AFAD170477047002001E001C1121FB8
:1011E000002AFBD170472DE9F04116460F46044610
:1011F000002503E03946B047641C6D1C20780028A8
:10120000F8D12846BDE8F08113B54FF0FF33012235
:1012100069460248FFF70CFE00981CBD98000020AC
:10122000EFF30580002800D00120704790B0FFF751
:101230002DF9FFF78FFE00242E480C940E9481693F
:1012400041F020018161816901F0200100918169F3
:1012500041F00401816180690BA900F00400009055
:1012600010200B9001200D902348FFF70BF8244825
:10127000224901604FF4E131C0E901140C21C4603E
:10128000C0E904418461C461FFF769FD08B172B629
:10129000FEE71C480022D0E90010CDE90910012129
:1012A00009A800F07BF8184C012300226060174861
:1012B00000904FF47A6116A001F06EFB1149A06016
:1012C0001C22083102A8FEF77BFF002102A800F0D3
:1012D0003BF8206004F10C010520CDE9000100235A
:1012E0004FF400720CA10E4801F09EF900F027F8AF
:1012F000FEE70000001002400008014000440040EA
:1013000098000020BC2A0008000000205D020008B0
:1013100054696D65723032005461736B3032000075
:101320002D10000801460020842900D0C81C7047F9
:1013300010B500B9012000F0E5FD002010BD10B58A
:1013400000F048FE002010BD7FB50D4604464169FF
:10135000B0F9080081B1A16971B1FFF7E3FFD4E9E9
:1013600005128DE80700D4E900102B46226901F030
:1013700088F9039004B070BDFFF7D4FF03A9CDE94D
:101380000001208A2B4682B2D4E9001001F04CF90A
:10139000012801D00020EDE70398EBE71CB511C848
:1013A0006CB1CDE90004012907D0002013460246A4
:1013B000012109A001F00AFB1CBD0120F6E7009005
:1013C000012907D0002013460246012102A001F0A6
:1013D000E3FA1CBD0120F6E7000000002DE9FC4106
:1013E000002507462E4601950C0000D10124FFF789
:1013F00017FF009690B101AB22460921384601F053
:101400002DFB012812D1019888B10A494FF0805074
:101410000860BFF34F8FBFF36F8F08E000232246B1
:101420000421384601F01AFB012800D0FF25284688
:10143000BDE8FC8104ED00E02DE9F041184C0F46B9
:10144000054666692068001D00F02CFC38B920684C
:1014500090F82C1001208840A1698143A161681C8B
:1014600007D137B12168BDE8F0410E48091D00F0F1
:1014700069BC20683544B5424560216805D2A06842
:10148000BDE8F041091D00F045BC6068091D00F091
:1014900041FC206B854200D22563BDE8F08100004D
:1014A00020000020E40800202DE9F041054600F06E
:1014B00055FC2E4C2069401C206120682C4F10B137
:1014C000E06940B32DE025602069012829D100267C
:1014D00006EB860007EB800000F00EFC761C072E62
:1014E000F6D323488C3000F007FC2148A03000F0F0
:1014F00003FC1F48B43000F0FFFB1D48C83000F06B
:10150000FBFB1B48DC3000F0F7FB19488C306060B7
:101510001430A06005E02068E96AC06A884200D8FB
:101520002560E06A401CE062E96A0120A269884007
:101530001043A06101EB810007EB8000291D00F042
:1015400001FC00F02BFCE06900280CD02068E96A5F
:10155000C06A884207D207494FF080500860BFF345
:101560004F8FBFF36F8FBDE8F08100002000002097
:101570000808002004ED00E038B500F0EFFB104C47
:10158000A068C8B90F4800F0B7FB0E48143000F04F
:10159000B3FB0C482060143060600A4B00202833F5
:1015A000009003F148020C210A2000F0E1FDA06048
:1015B00010B105A100F070FCBDE8384000F0EEBBB2
:1015C0005C000020F8080020546D725100000000FB
:1015D00030B4026C0B46002A0BD0C1681144C160C4
:1015E0004468A14201D30168C16030BC1846FEF7CF
:1015F000E7BD30BC70472DE9F041856B17460446C6
:101600000026026C82B1C7B1E068FEF7D9FDE1683F
:10161000206C091AE1602268914202D26168081ABE
:10162000E060022F16D017E02068A8B9606801F0CA
:10163000CBF80646002060600EE0A068FEF7C0FD13
:10164000216CA0680844A0606168884204D32068C7
:10165000A06001E005B16D1E6D1CA5633046BDE8BC
:10166000F08110B5044690F8510058B101280CD013
:1016700002280FD0502080F31188BFF34F8FBFF3A3
:101680006F8FFEE7206B00F09DFB2046BDE8104009
:1016900000F098BB10BD000010484FF440614207B5
:1016A00006D0C01D0D4920F00700411AC1F5406168
:1016B0000B4A00230144C2E900030839103A21F023
:1016C000070111604B600B600B1AC0E900139360B7
:1016D0004FF000405360D06070470000E0090020E8
:1016E00080000020144E154CA6F1C8074FF080581A
:1016F000DFF84C9012E000BF00F030FBF068C568E6
:10170000281D00F0CFFA2069401E2061E068401ECD
:10171000E06000F043FB2846FFF7A3FFE0680028E5
:10172000EAD138680128F9D9C9F80080BFF34F8F92
:10173000BFF36F8FF2E70000D008002020000020E8
:1017400004ED00E00346009829B10260C0E90F31C2
:10175000012100F041BD0060F8E72DE9F0479A460D
:10176000DDE9098481466FF00303206B03EB8202FD
:101770001044089D20F00706700707D0502080F322
:101780001188BFF34F8FBFF36F8FFEE723180A5CFA
:1017900083F834200A5C12B1401C1028F6D30027CD
:1017A00084F84370072D00D30625E562C4E911577C
:1017B000201D00F0ACFA04F1180000F0A8FA246132
:1017C000C5F107006462A061E76484F85070524676
:1017D0004946304600F054FA2060B8F1000F01D0BD
:1017E000C8F80040BDE8F0872DE9F0471E46DDE966
:1017F000089417460D0080460ED0002C14D0FFF739
:10180000BBFEC4F80080C4E90657C4E90869201D7E
:10181000BDE8F04700F07BBA502080F31188BFF399
:101820004F8FBFF36F8FFEE7BDE8F08730B51149EA
:1018300000E011460A688242FBD34B685C18844280
:1018400003D1406818444860084643681C18944215
:1018500009D1084C103C2468A24209D052681A44AD
:1018600042600A6812680260814200D0086030BDA0
:101870000460F9E78000002070B5002441600B4D42
:101880000061914206D8D11A8269914206D2011DA7
:10189000686807E09A4203D2994201D3012403E029
:1018A000011D286800F036FA204670BD5C0000205B
:1018B00010B5044600F052FAA06B28B15FF00004A6
:1018C00000F06CFA204610BD0124F9E730B587B06E
:1018D0002C4D4EE0049800284BDB069C606910B14B
:1018E000201D00F0DFF902A800F0B8F802460498C5
:1018F0000A283ED2DFE800F00505053D263705053C
:101900003D260598A169034601442046FFF7B4FF30
:1019100000B3616A20468847E069012829D1002088
:1019200000900598A169002342181946204601F04D
:1019300095F878B9502080F31188BFF34F8FBFF32B
:101940006F8FFEE70598A06128B1811813462046E5
:10195000FFF792FF0DE0502080F31188BFF34F8F07
:10196000BFF36F8FFEE794F8280010B9204600F00F
:1019700029FA002204A9A86800F080FD0028A9D156
:1019800007B030BD5C0000202DE9FC410F46054644
:1019900000F064FB01A800F061F80446019818B15A
:1019A00000F098FFBDE8FC81224EAFB1706800687E
:1019B000A8B30027291B3A46B06800F081FA00F06E
:1019C00089FF0028EED11C494FF080500860BFF31A
:1019D0004F8FBFF36F8FE5E7A542EBD800F07AFF9A
:1019E00030682746C068C468201D00F05BF9E069D4
:1019F000012810D1A0692B4641193A462046FFF72D
:101A00003BFF40B100200346014600902A46204695
:101A100001F024F820B1616A20468847C2E707E058
:101A2000502080F31188BFF34F8FBFF36F8FFEE715
:101A30000127BFE75C00002004ED00E00648416894
:101A4000096829B14168C968C96849680163704774
:101A50004FF0FF31FAE700002000002070B5054686
:101A600000F048FE064E04463069844203D200F07E
:101A700009F8012000E0002028602046346170BD94
:101A80005C000020F8B5194D1FE0C068C468066806
:101A9000201D00F007F9616A20468847E0690128A7
:101AA00013D1A0693044B04206D924616060211D81
:101AB000286800F02FF908E0002003460146009056
:101AC0003246204600F0CAFF38B128680168002974
:101AD000DBD16968C5E90010F8BD502080F311889A
:101AE000BFF34F8FBFF36F8FFEE700005C00002055
:101AF00008484068401C4FF0500080F3118804D023
:101B0000BFF34F8FBFF36F8FFEE7BFF34F8FBFF36E
:101B10006F8FFEE788000020074C2068016841B104
:101B2000C0680021D0F80000FFF72EFFFFF7CEFEBF
:101B3000F3E701210020F7E75C0000202DE9F041E8
:101B4000044600F00BF994F9455004F1240609E02D
:101B5000606A48B1304600F083FE08B100F000FA38
:101B60006D1E6DB2002DF3DC4FF0FF3684F845603A
:101B700000F014F900F0F2F894F9445004F1100761
:101B800009E0206948B1384600F06AFE08B100F06B
:101B9000E7F96D1E6DB2002DF3DC84F84460BDE8FA
:101BA000F04100F0FBB800002DE9F04105460027A8
:101BB00000F054FA314E306808B9FFF76DFDF06857
:101BC00005424BD1C5B3083568070ED005F00700B4
:101BD000C0F108000544680707D0502080F3118841
:101BE000BFF34F8FBFF36F8FFEE72DB37068854251
:101BF00034D82248103001460C6801E020460C46DB
:101C00006168A94202D221680029F7D131688C426B
:101C100024D007682168016060680837411B1029DB
:101C20000FD96019420708D0502080F31188BFF304
:101C30004F8FBFF36F8FFEE710E041606560FFF7E5
:101C4000F5FD61687068401A7060B268904200D219
:101C5000B060F06801430020C4E9000100F03AFEE2
:101C6000780707D0502080F31188BFF34F8FBFF360
:101C70006F8FFEE73846BDE8F0810000700000205D
:101C800010B5031F4FF080741C601B1F21F0010171
:101C90001960191F024B0B60143940380A6010BDDF
:101CA000F11A0008D0E9013201699A60D0E90123F4
:101CB0005A604A68824201D182684A600022026109
:101CC0000868401E0860086870470000034B036006
:101CD00003F154000860802010607047D800002095
:101CE000044B036003F1540008604FF480701060EF
:101CF000704700002C03002000F108014FF0FF3274
:101D0000C0E90112C160016100210160704700213A
:101D10000161704730B50B685A1C02D000F108020F
:101D200002E0026904E02246546825689D42FAD91F
:101D300053684B6099608A60516008610168491C72
:101D4000016030BD42684A6093688B609368596057
:101D5000916008610168491C01607047502080F360
:101D60001188BFF34F8FBFF36F8F0A494868401C3B
:101D7000486001280CD10848006810F0FF0F07D018
:101D8000502080F31188BFF34F8FBFF36F8FFEE7B2
:101D9000704700008800002004ED00E00849486812
:101DA00028B1401E486001D180F31188704750204F
:101DB00080F31188BFF34F8FBFF36F8FFEE70000F2
:101DC0008800002070B5002827D0144DA0F1080429
:101DD0006168E868014207D1502080F31188BFF3A1
:101DE0004F8FBFF36F8FFEE722683AB1502080F328
:101DF0001188BFF34F8FBFF36F8FFEE781436160A0
:101E000000F02CF960686968084468602046FFF7B4
:101E10000DFDBDE8704000F05DBD70BD700000209C
:101E20004FF0E02000210161816105494FF47A7291
:101E30000968B1FBF2F1491E416107210161704758
:101E40001C00002010B5FEF7A5F9114910280ED38B
:101E500000F1E02090F8F0030A78904207D2502079
:101E600080F31188BFF34F8FBFF36F8FFEE70948F0
:101E70000068896800F4E060884207D9502080F348
:101E80001188BFF34F8FBFF36F8FFEE710BD0000C7
:101E9000880000200CED00E010B5084B002200BFC8
:101EA00053F832401CB1521C082AF9D310BD43F834
:101EB000321003EBC201486010BD0000C8070020CB
:101EC00070B515460E460446FFF748FF94F94410D6
:101ED0000020491C01D184F8440094F94510491CA4
:101EE00001D184F84500FFF759FFA06B28B92A46B5
:101EF000314604F1240000F051F82046BDE870405E
:101F0000FFF71CBE10B5020014D00F48806B38B12B
:101F1000502080F31188BFF34F8FBFF36F8FFEE720
:101F200000F09CF800211046FFF786FA00F0D2FC82
:101F3000002807D105494FF080500860BFF34F8F4C
:101F4000BFF36F8F10BD00002000002004ED00E003
:101F500002498A6A02604969416070472000002096
:101F600001490120486270472000002010B50C464E
:101F700050B1094909681831FFF7CCFE2046BDE889
:101F800010400121FFF758BA502080F31188BFF3A9
:101F90004F8FBFF36F8FFEE72000002070B514460F
:101FA0000D4668B10A4909681831FFF7CBFE0CB13C
:101FB0004FF0FF3521462846BDE87040FFF73CBA98
:101FC000502080F31188BFF34F8FBFF36F8FFEE770
:101FD0002000002030B587B00024039405AA04A98E
:101FE00003A80494FFF772FEDDE903010094CDE934
:101FF0000110002315A11748059A00F042FB164D69
:10200000002868631FD000F0F9FC012809D0401CAB
:1020100019D1502080F31188BFF34F8FBFF36F8F1A
:10202000FEE7502080F31188BFF34F8FBFF36F8F0F
:102030004FF0FF3028630120E8616C6107B0BDE814
:10204000304000F041B807B030BD000049444C4575
:1020500000000000E5160008200000200248816B07
:10206000491C816370470000200000201448816BE8
:1020700011B1012141627047002141628169B1FAC9
:1020800081F1C1F11F0101EB81020E4951F82230AB
:102090006BB101EB820101F108034A6852684A60A2
:1020A0009A4201D152684A60D1680160704750205D
:1020B00080F31188BFF34F8FBFF36F8FFEE70000EF
:1020C00020000020080800201CB52649087801904F
:1020D000FF20087008788DF800009DF800009DF83A
:1020E000002000F0F000904207D0502080F31188CB
:1020F000BFF34F8FBFF36F8FFEE79DF800001A4BC1
:1021000000F0500018700720986005E09DF800204E
:1021100052008DF80020401E9DF800201206F5D4D4
:102120009860032807D0502080F31188BFF34F8FA9
:10213000BFF36F8FFEE74FF440709860019808700E
:102140000A48016841F470010160016841F0704182
:102150000160FFF765FE00205860FDF7E5FF0020F5
:102160001CBD000000E400E08800002020ED00E03D
:1021700038B5049D18B153B1CAB181B120E05020E7
:1021800080F31188BFF34F8FBFF36F8FFEE75020AE
:1021900080F31188BFF34F8FBFF36F8FFEE750209E
:1021A00080F31188BFF34F8FBFF36F8FFEE739B114
:1021B000502080F31188BFF34F8FBFF36F8FFEE77E
:1021C00048241C46012384F846302B460094FFF730
:1021D000B9FA204638BD000070B50D46040025D080
:1021E000FFF7BCFDD4E90F20216802FB00116160FC
:1021F0000021A1632168A1600A46D4E90F01401EB5
:1022000000FB0121E16021464FF0FF3001F8440F4F
:10221000487004F110008DB1FFF76EFD04F1240049
:10222000FFF76AFDFFF7BAFD012070BD502080F373
:102230001188BFF34F8FBFF36F8FFEE7216900292D
:10224000F0D000F00DFB0028ECD004494FF0805096
:102250000860BFF34F8FBFF36F8FE3E704ED00E03B
:102260002DE9FF4782B01D468A464FF00008040062
:1022700003D0BAF1000F08D011E0502080F311888C
:10228000BFF34F8FBFF36F8FFEE7206C38B1502044
:1022900080F31188BFF34F8FBFF36F8FFEE7022DDE
:1022A0000AD1E06B012807D0502080F31188BFF3DA
:1022B0004F8FBFF36F8FFEE700F00EFA3F4F4FF0E6
:1022C00000094FF0805648B9049838B1502080F387
:1022D0001188BFF34F8FBFF36F8FFEE7FFF73EFD0F
:1022E000A06BE16B884207D3022D05D00498D0B1D2
:1022F000B8F1000F1AD01EE02A4651462046FFF7DB
:102300007AF9616A19B104F1240000F0A9FA20B148
:102310003E60BFF34F8FBFF36F8FFFF73FFD01208C
:1023200006B0BDE8F087FFF739FD22E06846FFF709
:102330000FFE4FF00108FFF731FDFFF78FFEFFF7AB
:102340000DFD94F94400401C01D184F8449094F9A7
:102350004500401C01D184F84590FFF71FFD04A9FA
:10236000684600F027F930B12046FFF7E7FB00F0A0
:10237000B1FA0020D4E7FFF7F1FCA06BE16B8842D3
:1023800013D1FFF70BFD04F110000499FFF7EEFDE8
:102390002046FFF7D3FB00F09DFA00289ED13E6057
:1023A000BFF34F8FBFF36F8F98E7FFF7F7FC20461F
:1023B000FFF7C4FB00F08EFA90E7000004ED00E0A8
:1023C0002DE9F0471F4690468946040003D0B9F135
:1023D000000F08D011E0502080F31188BFF34F8F19
:1023E000BFF36F8FFEE7206C38B1502080F3118867
:1023F000BFF34F8FBFF36F8FFEE7022F0AD1E06B61
:10240000012807D0502080F31188BFF34F8FBFF30E
:102410006F8FFEE7FFF716FD5020EFF3118680F374
:102420001188BFF34F8FBFF36F8FA06BE16B8842B2
:1024300006D3022F04D0002086F31188BDE8F08770
:1024400094F945503A4649462046FFF7D4F8681CAF
:1024500004D06D1C84F845500120EDE7606A002827
:10246000FAD004F1240000F0FBF90028F4D0B8F110
:10247000000FF1D00121C8F80010EDE72DE9F74772
:10248000002683B08A46040003D0BAF1000F08D0BA
:1024900011E0502080F31188BFF34F8FBFF36F8F8F
:1024A000FEE7206C38B1502080F31188BFF34F8FC6
:1024B000BFF36F8FFEE700F00FF9DFF8F4804FF005
:1024C00000094FF0805748B9059838B1502080F383
:1024D0001188BFF34F8FBFF36F8FFEE7FFF73EFC0E
:1024E000A56BC5B151462046FFF772F86D1EA56376
:1024F000206950B104F1100000F0B2F928B1C8F819
:102500000070BFF34F8FBFF36F8FFFF747FC0120C1
:1025100006B0BDE8F087059808B11EB106E0FFF7E8
:102520003DFC27E06846FFF713FD0126FFF736FC68
:10253000FFF794FDFFF712FC94F94400401C01D111
:1025400084F8449094F94500401C01D184F84590EA
:10255000FFF724FC05A9684600F02CF80028204667
:102560000AD0FFF7EBFA00F0B5F92046FFF7A0F923
:102570000028B3D00020CBE7FFF79AF990B104F11F
:1025800024000599FFF7F2FC2046FFF7D7FA00F088
:10259000A1F90028A2D1C8F80070BFF34F8FBFF394
:1025A0006F8F9BE72046FFF7C9FA00F093F995E794
:1025B00004ED00E02DE9F0410C46050011D0C4B156
:1025C000FFF7CCFB174B5A696E682068911B471CBC
:1025D00017D02F689B6A9F4219D0964217D80124C2
:1025E00010E0502080F31188BFF34F8FBFF36F8F3F
:1025F000FEE7502080F31188BFF34F8FBFF36F8F3A
:10260000FEE70024FFF7CAFB2046BDE8F0818842C0
:1026100005D9401A20602846FFF79AFCF1E7002010
:102620002060DCE7200000202DE9FF5F8346DDE924
:102630000E87994616468A469000FFF7B5FA0500C0
:102640001CD05420FFF7B0FA040014D000202563FA
:1026500084F85100CDE90240CDE900874B4632466F
:1026600051465846FFF779F82046FEF71DFF012036
:1026700004B0BDE8F09F2846FFF7A4FB4FF0FF3001
:10268000F6E7F0B585B0DDE90B640A9DA6B1DCB1D3
:10269000542700972663022684F85160002604AF71
:1026A000CDE90246CDE90057FFF757F82046FEF77F
:1026B000FBFE049805B0F0BD502080F31188BFF3F5
:1026C0004F8FBFF36F8FFEE7502080F31188BFF369
:1026D0004F8FBFF36F8FFEE70548C16919B1806B5B
:1026E00018B1002070470120704702207047000099
:1026F00020000020014840697047000020000020B1
:102700002DE9F0412E4C0027A06B40B1206A401CFF
:102710002062606A00B101273846BDE8F081666931
:10272000761C666113D16068006838B1502080F370
:102730001188BFF34F8FBFF36F8FFEE76068A1680A
:102740006160A060A06A401CA062FFF777F9206B6F
:10275000DFF87080864209D36068006880B16068E5
:10276000C068C568686886420DD220632068C06A68
:1027700000EB800158F821000128CAD90127C8E7D9
:102780004FF0FF30F1E7281DFFF78CFAA86A18B167
:1027900005F11800FFF786FAE86A0121A269814075
:1027A0001143A16100EB800108EB8100291DFFF7B7
:1027B000C9FAE86A2168C96A8842CDD30127CBE704
:1027C000200000200808002070B504004FF0000130
:1027D00040D0214D2868844207D0502080F31188D2
:1027E000BFF34F8FBFF36F8FFEE7A06C38B1401E71
:1027F000A064636CE26A9A422CD040B12AE0502077
:1028000080F31188BFF34F8FBFF36F8FFEE7201D5A
:10281000FFF748FA114A012150B9E06A00EB800342
:1028200052F8233023B9AB6901FA00F08343AB615E
:10283000606CE062C0F10700A061E06AAB698140B2
:102840001943A96100EB800002EB8000211DFFF716
:1028500079FA0121084670BD2000002008080020F8
:102860002DE9F041C068C468ACB104F11800074616
:10287000FFF718FA154DA86B0126A0B13946144888
:10288000FFF760FAE06A2968C96A88421CD901200A
:102890006E62BDE8F081502080F31188BFF34F8F46
:1028A000BFF36F8FFEE7201DFFF7FCF9E16AAA690D
:1028B00006FA01F01043A86101EB81000449B43924
:1028C00001EB8000211DDBE70020E2E72000002073
:1028D000BC0800202DE9F0472C4D00242746A86BAA
:1028E00038B1FFF73BFAA86B401EA863A86B40B154
:1028F00046E0502080F31188BFF34F8FBFF36F8FF6
:10290000FEE72969224E0120D1B3A6F1B409804621
:102910003068E8B1F068C46804F11800FFF7C2F944
:10292000201DFFF7BFF9E06AAA6908FA00F1114318
:10293000A96100EB800109EB8100211DFFF702FA7C
:10294000E06A2968C96A8842E2D3C5F82480DFE7D3
:102950000CB1FFF773F82C6A44B14646FFF7D0FE7E
:1029600000B16E62641EF9D100202862686A38B135
:102970000849012738070860BFF34F8FBFF36F8FF7
:10298000FFF70CFA3846BDE8F08700002000002071
:10299000BC08002004ED00E02DE9FC4781461E46FE
:1029A000174688462C200A9DFFF7FEF804000AD03F
:1029B000CDE9005433463A4641464846FEF714FFF7
:1029C000002084F828002046BDE8FC877CB52C2632
:1029D000DDE90654009644B1CDE90054FEF704FF4A
:1029E000012084F8280020467CBD502080F3118807
:1029F000BFF34F8FBFF36F8FFEE7000010B586B0B7
:102A0000FEF7BAFD114CA068B8B100200390049005
:102A100005AA04A903A8FFF763F9DDE90321022051
:102A20008DE8070000230AA10B48059AFFF729FE4D
:102A3000E06010B106B0012010BD502080F3118875
:102A4000BFF34F8FBFF36F8FFEE700005C000020E5
:102A5000546D722053766300191B0008FEB51E46A4
:102A600013460200089D4FF0000014D0124CA768D6
:102A7000002F0FD0CDE900130292062915DAFFF7D7
:102A80002BFE02284FF000030DD000226946A068FB
:102A9000FFF7E6FBFEBD502080F31188BFF34F8F98
:102AA000BFF36F8FFEE72A46F0E700233246694600
:102AB0003846FFF785FCFEBD5C00002031020008AF
:102AC00000000000F82A0008E90E000800000000DD
:102AD0000000000080000000000000000000000076
:102AE00000000000000000000102030406070809BE
:102AF000000000000102030464656661756C745493
:102B000061736B00242B0008000000209800000077
:102B1000C8110008BC2B00089800002048190000CC
:102B2000D8110008000000000000000000000000B4
:102B30000000000001000000100000000000000084
:102B40000024F4000000000000000000000000006D
:102B50000000000000000000000000000000000075
:102B60000000000000000000000000000000000065
:102B70000000000000000000000000000000000055
:102B80000000000000000000000000000000000045
:102B90000000000000000000000000000000000035
:102BA0000000000000000000000000000000000025
:0C2BB000AAAAAAAA000000000000000071
:04000005080000ED02
:00000001FF
