:020000040800F2
:10000000581400209D010008E7110008191100088C
:10001000E51100082D020008191500080000000075
:1000200000000000000000000000000005010008C2
:100030002F020008000000004901000835120008E6
:10004000B7010008B7010008B7010008B7010008B0
:10005000B7010008B7010008B7010008B7010008A0
:10006000B7010008B7010008B7010008B701000890
:10007000B7010008B7010008B7010008B701000880
:10008000B7010008B7010008B7010008B701000870
:10009000B7010008B7010008B7010008B701000860
:1000A000B7010008B7010008B7010008B701000850
:1000B000B7010008B7010008C1120008B701000825
:1000C000B7010008B7010008B7010008B701000830
:1000D000B7010008B70100080D150008B7010008B6
:1000E000B7010008B7010008B7010008DFF810D019
:1000F00000F08AF800480047A5150008AFF300801B
:1001000058140020224B19680868B0E8F00F80F3FB
:100110000988BFF36F8F4FF0000080F311884EF015
:100120000D0E70470000000006480068006880F36C
:10013000088862B661B6BFF34F8FBFF36F8F00DFE1
:1001400000BF00BF08ED00E0EFF30980BFF36F8F41
:100150000F4B1A6820E9F00F106008B54FF05000FF
:1001600080F31188BFF34F8FBFF36F8F01F0DCFE78
:100170004FF0000080F31188BDE808401968086856
:10018000B0E8F00F80F30988BFF36F8F704700BFAE
:1001900028000020EFF305807047000006488047E4
:1001A00006480047FEE7FEE7FEE7FEE7FEE7FEE75C
:1001B000FEE7FEE7FEE7FEE7BF120008ED000008DD
:1001C00040EA01039B0703D009E008C9121F08C0D9
:1001D000042AFAD203E011F8013B00F8013B521E59
:1001E000F9D27047D2B201E000F8012B491EFBD2D0
:1001F00070470022F6E710B513460A460446194632
:10020000FFF7F0FF204610BD064C074D06E0E06802
:1002100040F0010394E8070098471034AC42F6D34D
:10022000FFF768FF2025000840250008FEE770471B
:1002300010B590F821100024022903D00421816315
:1002400001243DE001680A6822F00E020A6001689C
:100250000A6822F001020A601A4A0168914201D13B
:10026000012121E0174A1432914201D110211BE0F3
:10027000144A2832914201D1891515E0114A3C32C5
:10028000914201D189140FE00E4A5032914202D1BD
:100290004FF4803108E00B4A6432914202D14FF4AE
:1002A000801101E04FF08071064A083A5160012147
:1002B00080F82110002180F82010416B01B188479F
:1002C000204610BD080002402DE9F84FDFF8B89134
:1002D000002409F1040A0AF1040B23460F270BF14D
:1002E000040EC9E00125A5402A40AA427DD1674EEF
:1002F000D1F804C0ACEB0608B44532D014DCBCF134
:10030000030F3AD009DCBCF1000F2AD0BCF1010F79
:100310001CD0BCF1020F31D11DE0BCF1110F17D080
:10032000BCF1120F2AD119E0B8F5881F19D006DCEC
:10033000B8F5803F15D0B8F5801F1FD111E0B8F592
:10034000001F0ED0B8F5041F18D10AE0CB6815E0E5
:10035000CB681B1D12E0CB6808330FE0CB680C3371
:100360000CE08B682BB1012B4FF0080303D04561E3
:1003700004E0042302E0056100E00023FF2A01D825
:10038000064601E000F104064FEA840501D9A5F113
:100390002005D6F8008007FA05FC28EA0C0803FAC5
:1003A00005F548EA0508C6F800804D68ED0062D5FD
:1003B000374DAE6946F00106AE61AD6924F0030623
:1003C00005F001050095334D06EB050CDCF80850EF
:1003D000A607360F07FA06F825EA0805DFF8B88001
:1003E000404503D14FF0000817E044E0DFF8AC804F
:1003F000404502D14FF001080FE0DFF8A4804045EE
:1004000002D14FF0020808E0DFF89880404502D1A1
:100410004FF0030801E04FF0040808FA06F848EA34
:100420000508CCF808804D68D9F80060ED034D460A
:1004300001D5164300E096432E604D68DAF800605F
:10044000AD03554601D5164300E096432E604D6836
:10045000DBF80060ED025D4601D5164300E09643EF
:100460002E604D68DEF80060AD02754601D516437A
:1004700000E096432E60641C0D682A46E5407FF438
:1004800031AFBDE8F88F00000004014000001110FA
:10049000001002400000014000080140000C014033
:1004A00000100140001401400148806870470000BE
:1004B000180000200248816802781144816070476A
:1004C00018000020074810B5016841F010010160D4
:1004D000032000F095F8002000F006F800F03EF848
:1004E000002010BD0020024000B5014687B0002268
:1004F0001E2000F065F81E2000F054F81348C16972
:1005000041F00401C161C06905A900F00400069032
:10051000684600F01DF900F03BF90D494000B0FBC2
:10052000F1F10D480B4A491E0260416040F2E7328A
:100530000021C0E90321816000F012FB10B101200D
:1005400007B000BD044800F039FBF9E70010024095
:1005500040420F0000080040200300200F4808B56B
:10056000816941F001018161816901F0010100911E
:10057000C16941F08051C161C069002200F0805022
:1005800000900F21901E00F01BF80548416821F0F3
:10059000E06141F00071416008BD000000100240C0
:1005A00000000140002809DB00F01F0201219140FA
:1005B0004009800000F1E020C0F800117047000001
:1005C000F0B40E4B1B680C46C3F30223C3F10705BE
:1005D000042D00D90425191D072901D2002300E0AC
:1005E000DB1E012606FA05F1491E214099409E4076
:1005F000761E16403143F0BC00F098BF0CED00E0D1
:10060000064900F0070208684FF6FF03184040EA69
:100610000220034A10430860704700000CED00E020
:100620000000FA052DE9F0470F46050061D0434E62
:10063000306800F00700B84209D2306820F00700A7
:1006400038433060306800F00700B84251D1286864
:100650003B4C810712D5400703D5606840F4E06049
:1006600060602878000703D5606840F460506060DF
:100670006068A96820F0F000084360602878C0072F
:1006800028D06868012810D02168022810D0890776
:1006900000292EDA616821F0030101436160FFF750
:1006A00003FF804641F288390DE021688903EFE7B6
:1006B0008901EDE7FFF7F8FEA0EB0801494502D9F3
:1006C0000320BDE8F0876068696800F00C00B0EBBB
:1006D000810FEFD1306800F00700B8420BD93068C5
:1006E00020F0070038433060306800F00700B8425F
:1006F00001D00120E5E72878400705D56068E96862
:1007000020F4E060084360602878000706D5606840
:10071000296920F4605040EAC100606000F058F898
:100720006168084AC1F30311515CC840064908607A
:1007300006480068FFF7D8FE0020C2E7002002400C
:1007400000100240F4240008240000201C000020B7
:100750000F2202600C4A536803F00303436053689E
:1007600003F0F0038360536803F4E063C3605268EE
:100770004FF4E06303EAD20202610448006800F02B
:10078000070008607047000000100240002002408F
:100790000448054900684968044AC1F30221515CD4
:1007A000C8407047240000200010024004250008C3
:1007B0000448054900684968044AC1F3C221515CF4
:1007C000C8407047240000200010024004250008A3
:1007D00012A185B00FC98DE80F0014A0144A00685B
:1007E00004905168134801F00C03042B10D0082B1F
:1007F0000ED1C1F38343C9031DF803000AD5516824
:1008000004AAC1F34041515C0A4A5043B0FBF1F0E5
:1008100005B0704708494843FAE7000002030405A1
:10082000060708090A0B0C0D0E0F1010010200003C
:100830000010024000127A0000093D002DE9F84F37
:10084000040070D02078C04DC00749D06868C0F35C
:100850008100012807D06868C0F38100022809D10F
:100860006868C00306D52868800339D56068002809
:10087000E7D035E06068B0F5803F0BD010B1B0F53F
:10088000A02F11D0286820F480302860286820F438
:10089000802002E0286840F480302860606890B1D1
:1008A000FFF702FE06460AE0286840F48020286030
:1008B000F0E700BFFFF7F8FD801B642873D82868B5
:1008C0008003F7D50CE0FFF7EFFD064605E000BF1B
:1008D000FFF7EAFD801B6428F0D828688003F7D46E
:1008E00020789A4E80074FF001094FF0000839D563
:1008F000686810F00C0F07D06868C0F38100022808
:1009000009D16868C00306D42868800714D5206917
:10091000012808D110E02069B0B1C6F80090FFF7B7
:10092000C3FD074605E00AE1FFF7BEFDC01B022834
:10093000C4D828688007F7D52868616920F0F800D6
:1009400040EAC10028600DE0C6F80080FFF7ACFD6A
:10095000074604E0FFF7A8FDC01B022823D828683B
:100960008007F7D4207800072CD57948A169D9B140
:10097000C0F80090FFF798FD074604E0FFF794FDEC
:10098000C01B02280FD8686A8007F7D571484FF45A
:10099000FA510068B0FBF1F0009000BF0098411ED2
:1009A0000091FAD20EE080E0C0F80080FFF77CFDF5
:1009B000074604E0FFF778FDC01B022875D8686A77
:1009C0008007F7D42078400760D5E8690027C00089
:1009D00008D4E86940F08050E861E869012700F038
:1009E000805000905C480168C90513D401688346B3
:1009F00041F480710160FFF757FD824606E000BFB9
:100A0000FFF752FDA0EB0A0064284ED8DBF8000087
:100A1000C005F5D5E06801280AD008B1052813D033
:100A2000286A20F001002862286A20F0040002E011
:100A3000286A40F001002862E06841F2883B98B1E2
:100A4000FFF732FD82460BE0286A40F0040028627E
:100A5000EEE700BFFFF728FDA0EB0A0159455AD881
:100A6000286A8007F6D50CE0FFF71EFD824605E0F8
:100A7000FFF71AFDA0EB0A0159454CD8286A8007F8
:100A8000F6D41FB1E86920F08050E861E06988B3CE
:100A90006968C1F38101022944D00228C6F8608048
:100AA00004D0FFF701FD044638E034E0FFF7FCFC1A
:100AB000074604E0FFF7F8FCC01B02282BD8286883
:100AC0008001F7D4206AB0F5803F05D16868A1683D
:100AD00020F4003008436860D4E9080108436968DD
:100AE00021F4741108436860C6F86090FFF7DCFCDD
:100AF000044606E025E000BFFFF7D6FC001B0228F5
:100B000009D828688001F7D51BE000BFFFF7CCFCAF
:100B1000001B022802D90320BDE8F88F2868800155
:100B2000F4D40EE00128F7D06868226A00F480311E
:100B3000914204D1616A00F47010884201D0012012
:100B4000EAE70020E8E7000000100240000042420F
:100B5000800442422400002000700040704770472B
:100B600010B5040003D094F83D0010B107E0012057
:100B700010BD002084F83C00204600F01EF8022042
:100B800084F83D00211D206800F0A0FB012084F8BE
:100B9000460084F83E0084F83F0084F8400084F862
:100BA000410084F8420084F8430084F8440084F84B
:100BB000450084F83D00002010BD704790F83D10BE
:100BC000012901D001207047022180F83D10016801
:100BD000CA6842F00102CA6000680B49884208D026
:100BE000B0F1804F05D00949884202D008498842B7
:100BF00004D1816801F00701062903D0016841F0A2
:100C00000101016000207047002C014000040040F9
:100C100000080040704770B50446006801694FF055
:100C20000005C943890715D4C168C943890711D490
:100C3000E91E016101202077206880698007204635
:100C400002D0FFF7E7FF04E000F098F8204600F03C
:100C500096F8257720680169C943490717D4C16808
:100C6000C943490713D46FF00401016102202077C2
:100C70002068806910F4407F204602D0FFF7CAFF49
:100C800004E000F07BF8204600F079F82577206832
:100C90000169C943090716D4C168C943090712D4B9
:100CA0006FF008010161042020772068C069800787
:100CB000204602D0FFF7AEFF04E000F05FF82046C8
:100CC00000F05DF8257720680169C943C90617D48B
:100CD000C168C943C90613D46FF01001016108202F
:100CE00020772068C06910F4407F204602D0FFF7CB
:100CF00091FF04E000F042F8204600F040F825772C
:100D000020680169C943C90708D1C168C943C90737
:100D100004D1891E0161204600F032F82068016983
:100D2000C943090609D4C168C943090605D46FF04F
:100D3000800101612046FFF711FF20680169C94366
:100D4000490609D4C168C943490605D46FF040017A
:100D50000161204600F01EF820680169C943890638
:100D60000BD4C168C943890607D46FF02001016123
:100D70002046BDE87040FFF7F2BE70BD7047704777
:100D800000680349884201D1FFF794BB7047000017
:100D9000000800407047704770B50268044610684C
:100DA000D168536910F00F0F52D003F0010501F420
:100DB00090762E435FD0C20705D0CA0503D5E26BFB
:100DC00042F00102E263420705D5DA0703D0E26B85
:100DD00042F00202E263820705D5DA0703D0E26B34
:100DE00042F00402E263020707D501F020022A4321
:100DF00003D0E26B42F00802E263E26B002A33D0D8
:100E0000800604D5880602D5204600F0ABFA20689B
:100E10004069E16BC0F38010090700D428B3204675
:100E200000F092FA2068416949061AD5416921F01B
:100E300040014161606BA0B12D494163606BFFF7D8
:100E4000F7F9002810D0606B416BBDE8704008478F
:100E5000830610D58B060ED52046BDE8704000F005
:100E600081BA2046FFF797FF70BD2046FFF793FF3A
:100E70000020E06370BD03062BD50B0629D594F83E
:100E800039002128F6D1A068B0F5805F01D1206932
:100E9000B0B1206A411C2162216800784860E08C72
:100EA000401E0004000CE084E4D12068C16821F0F9
:100EB0008001C1602068C16841F04001C16070BD1F
:100EC000206A0088C0F308005060206A801C2062FD
:100ED000E5E74006F3D54806F1D5D168204621F074
:100EE0004001D160202184F8391000F014F970BD60
:100EF0003913000870B5040004D094F839000025B7
:100F000010B106E0012070BD84F83850204600F092
:100F100023F8242084F839002068C16821F40051A6
:100F2000C160204600F064FA2068016921F4904114
:100F300001612068416921F02A0141612068C1688E
:100F400041F40051C160E563202084F8390084F841
:100F50003A00002070BD000030B585B00024009438
:100F60000194029403940068184988422BD11848D0
:100F7000C16941F40031C161C16901F400310491DA
:100F8000816941F0040181618069124D00F0040023
:100F900004900420009002200190032003906946F1
:100FA0002846FFF791F90820CDE900046946284654
:100FB0000294FFF789F9002205212620FFF700FBA4
:100FC0002620FFF7EFFA05B030BD000000440040D6
:100FD000001002400008014090F83A30202B22D146
:100FE000F9B1F2B190F83830012B1CD081628285C2
:100FF000C2850021C163222280F83A2080F838108F
:101000000168CA6842F48072CA6001684A6942F0A5
:1010100001024A610068C16841F02001C1600020FE
:1010200070470120704702207047000010B5012270
:1010300009490A48FFF7D0FF0748806801F0FAF92C
:10104000002807D006494FF080500860BFF34F8F4B
:10105000BFF36F8F10BD0000000000208C00002047
:1010600004ED00E02DE9F843044690F839001F46EE
:1010700016460D4620284CD1C5B1BEB194F83800B3
:10108000012846D0012084F838004FF00008C4F849
:101090003C80212084F83900FFF706FAA6848146B7
:1010A000E684A068B0F5805F03D004E00120BDE8CD
:1010B000F883206928B12E465FF0000584F8388057
:1010C0000EE00026FAE78021204600F0EDF9A0B9F5
:1010D000AEB116F8010B21684860E08C401EE08438
:1010E000E08C4B464FF0000200970028EBD14FF008
:1010F0004001204600F0D8F930B10320D7E735F899
:10110000020BC0F30800E6E7202084F83900002035
:10111000CDE70220CBE77047FEE7000008B500F0FE
:1011200031FF124C4FF0FF35206111A000F0F6F9AD
:10113000012300951A460721206900F077FF00F08F
:10114000020161616060C00702D00EA000F0E6F904
:101150002079800702D513A000F0E0F9207940073C
:10116000E3D518A000F0DAF9DFE700000000002066
:1011700077616974696E67206576656E74202E2EBE
:101180002E0A00006576656E7420302061637469F4
:10119000766564207375636365737366756C6C79CB
:1011A0000A0000006576656E742031206163746901
:1011B000766564207375636365737366756C6C79AB
:1011C0000A0000006576656E7420322061637469E0
:1011D000766564207375636365737366756C6C798B
:1011E0000A000000FEE7FEE70C4C0DA000F096F9A7
:1011F000002000F033FE2078302805D0312805D0BB
:10120000322805D0072104E0012102E0022100E09C
:101210000421206900F0C4FEE7E700000000002080
:1012200077616974696E672064617461202E2E2E67
:101230000A00000010B5502080F31188BFF34F8FD3
:10124000BFF36F8F01F030F818B104494FF08050B0
:101250000860002080F3118810BD000004ED00E05C
:1012600030B58FB028216846FEF7C3FF14210AA8C5
:10127000FEF7BFFF01210804CDE90010002402940D
:1012800002250491CDE907504FF4E010099068461B
:10129000FFF7D4FA08B172B6FEE70F20CDE90A05D0
:1012A0004FF48060CDE90C4002210AA80E94FFF7AC
:1012B000B9F9002801D072B6FEE70FB030BD704713
:1012C0000148FFF7A8BC000020030020F0B5026829
:1012D000164B174C174D4FF08047984205D0B84237
:1012E00003D0A04201D0A84203D122F070064A6880
:1012F0003243984205D0B84203D0A04201D0A84260
:1013000003D122F44074CA6822434C6922F080025F
:10131000224302608A68C2620A688262984201D1EE
:101320000969016301214161F0BD0000002C014009
:10133000000400400008004010B5406A0021C1854B
:10134000C184FFF728FD10BD0168CA6822F49072BD
:10135000CA6001684A6922F001024A61202180F8CE
:101360003A10704710B590F83A10222901D00220A7
:1013700010BD82684FF480539A4201D1016921B1B6
:10138000816A9A421BD04AB10AE00268816A5268B7
:10139000C2F308020A80816A891C08E0026972B1FE
:1013A0000268526802F07F020A70816A491C8162F9
:1013B000C18D491E0904090CC18503D016E00268DD
:1013C0005268F1E70168CA6822F02002CA60016829
:1013D000CA6822F48072CA6001684A6922F0010278
:1013E0004A61202180F83A10FFF720FE002010BD4E
:1013F00070B5044600680169E26821F44051114368
:1014000001612169A0680843616908432168CA68CD
:1014100041F20C639A430243CA6020684169A269A1
:1014200021F44071114341611E492068884202D174
:10143000FFF7BEF901E0FFF7ABF900EBC00101EBEC
:101440000012606864218000B2FBF0F3B3FBF1F39B
:101450006FF018067343B2FBF0F5B2FBF0F605EB44
:101460008305322303EB0515B5FBF1F5B6FBF1F669
:1014700005F0F00505EB0615B2FBF0F6B2FBF0F057
:10148000B0FBF1F06FF01802504306EB800003EB65
:101490000010B0FBF1F0216800F00F0028448860D4
:1014A00070BD0000003801402DE9F0419846174614
:1014B0000E460446069D1DE0681C1BD02DB1FEF7AC
:1014C000F3FFA0EB0800A84214D92068C16821F4FA
:1014D000D071C1602068416921F001014161202083
:1014E00084F8390084F83A00002084F8380003209A
:1014F000BDE8F0812068006836EA000004D00020D2
:10150000B842D9D00020F3E70120F9E70148FFF7FE
:1015100043BC00008C000020FEE70000014A0249A5
:1015200000F023B88D150008880000200907090E77
:10153000002804DB00F1E02080F80014704700F080
:101540000F0000F1E02080F8141D704702E008C889
:10155000121F08C1002AFAD170477047002001E02D
:1015600001C1121F002AFBD170472DE9F041164638
:101570000F460446002503E03946B047641C6D1C45
:1015800020780028F8D12846BDE8F08113B54FF047
:10159000FF33012269460248FFF764FD00981CBD35
:1015A0008C00002090B0FEF78DFFFFF759FE214818
:1015B000816941F020018161816901F020010E9172
:1015C000816941F00401816180691B4900F00400D8
:1015D0000E901A480C2201604FF4E1314160002165
:1015E0008160C160C0E904128161C161FFF782FCC2
:1015F00008B172B6FEE7012211491048FFF7ECFC72
:101600001C2210496846FEF7DBFD0021684600F009
:1016100026F80B4C0B491C22A0601C3107A8FEF7D2
:10162000CFFD002107A800F01AF8E06000F012F8E2
:10163000FEE7000000100240004400408C00002043
:1016400000000020BC24000801460020842900D0AE
:10165000C81C704710B500F0CBFB002010BD7FB553
:101660000D4604464169B0F9080081B1A16971B124
:10167000FFF7EAFFD4E905128DE80700D4E900106E
:101680002B46226900F0D7FD039004B070BDFFF730
:10169000DBFF03A9CDE90001208A2B4682B2D4E901
:1016A000001000F09BFD012801D00020EDE7039819
:1016B000EBE700002DE9F041184C0F46054666693E
:1016C0002068001D00F03AFA38B9206890F82C1014
:1016D00001208840A1698143A161681C07D137B10D
:1016E0002168BDE8F0410E48091D00F077BA206876
:1016F0003544B5424560216805D2A068BDE8F04197
:10170000091D00F053BA6068091D00F04FFA206B04
:10171000854200D22563BDE8F0810000280000204A
:10172000440400202DE9F041054600F063FA2E4CF8
:101730002069401C206120682C4F10B1E06940B343
:101740002DE025602069012829D1002606EB8600BE
:1017500007EB800000F01CFA761C072EF6D3234816
:101760008C3000F015FA2148A03000F011FA1F4823
:10177000B43000F00DFA1D48C83000F009FA1B48DB
:10178000DC3000F005FA19488C3060601430A0603D
:1017900005E02068E96AC06A884200D82560E06AEE
:1017A000401CE062E96A0120A26988401043A06100
:1017B00001EB810007EB8000291D00F00FFA00F01B
:1017C00039FAE06900280CD02068E96AC06A8842CA
:1017D00007D207494FF080500860BFF34F8FBFF327
:1017E0006F8FBDE8F0810000280000206803002012
:1017F00004ED00E010B5044690F8510058B10128FE
:101800000CD002280FD0502080F31188BFF34F8FE7
:10181000BFF36F8FFEE7206B00F020FA2046BDE893
:10182000104000F01BBA10BD10484FF44061420751
:1018300006D0C01D0D4920F00700411AC1F54061D6
:101840000B4A00230144C2E900030839103A21F091
:10185000070111604B600B600B1AC0E90013936025
:101860004FF000405360D0607047000058040020E3
:1018700074000020144E154CA6F1C8074FF0805894
:10188000DFF84C9012E000BF00F0B4F9F068C568D2
:10189000281D00F053F92069401E2061E068401EB9
:1018A000E06000F0C7F92846FFF7A4FFE0680028D1
:1018B000EAD138680128F9D9C9F80080BFF34F8F01
:1018C000BFF36F8FF2E700003004002028000020F3
:1018D00004ED00E02DE9F0479A46DDE909848146F0
:1018E0006FF00303206B03EB82021044089D20F08D
:1018F0000706700707D0502080F31188BFF34F8F81
:10190000BFF36F8FFEE723180A5C83F834200A5C6C
:1019100012B1401C1028F6D3002784F84370072D1D
:1019200000D30625E562C4E91157201D00F03BF9FC
:1019300004F1180000F037F92461C5F10700646272
:10194000A061E76484F8507052464946304600F082
:10195000E3F82060B8F1000F01D0C8F80040BDE8FE
:10196000F087000030B5114900E011460A68824254
:10197000FBD34B685C18844203D14068184448602C
:10198000084643681C18944209D1084C103C24684E
:10199000A24209D052681A4442600A681268026082
:1019A000814200D0086030BD0460F9E77400002077
:1019B00006484168096829B14168C968C968496829
:1019C000016370474FF0FF31FAE700002800002064
:1019D00008484068401C4FF0500080F3118804D044
:1019E000BFF34F8FBFF36F8FFEE7BFF34F8FBFF390
:1019F0006F8FFEE77C000020002150B10A4B426946
:101A00009A420FD1806AA3F1280290420AD040B1D5
:101A100008E0502080F31188BFF34F8FBFF36F8F22
:101A2000FEE70121084670474404002003460020D9
:101A300012B1994302D070470B42FCD0012070478D
:101A40002DE9F0410546002700F066FA314E306876
:101A500008B9FFF7E9FEF06805424BD1C5B3083578
:101A600068070ED005F00700C0F1080005446807BC
:101A700007D0502080F31188BFF34F8FBFF36F8FD3
:101A8000FEE72DB37068854234D8224810300146F5
:101A90000C6801E020460C466168A94202D2216828
:101AA0000029F7D131688C4224D007682168016091
:101AB00060680837411B10290FD96019420708D008
:101AC000502080F31188BFF34F8FBFF36F8FFEE775
:101AD00010E041606560FFF745FF61687068401A7B
:101AE0007060B268904200D2B060F068014300209C
:101AF000C4E9000100F03CFC780707D0502080F3D7
:101B00001188BFF34F8FBFF36F8FFEE73846BDE8F4
:101B1000F08100006400002010B5031F4FF08074B6
:101B20001C601B1F21F001011960191F024B0B6083
:101B3000143940380A6010BDD1190008D0E90132CB
:101B400001699A60D0E901235A604A68824201D152
:101B500082684A60002202610868401E08600868C6
:101B600070470000044908680A688069D26A0968F9
:101B7000C2F107028A61704728000020034B03600E
:101B800003F154000860802010607047CC000020F2
:101B900000F108014FF0FF32C0E90112C16001619C
:101BA00000210160704700210161704730B50B686A
:101BB0005A1C02D000F1080202E0026904E0224649
:101BC000546825689D42FAD953684B6099608A60D1
:101BD000516008610168491C016030BD42684A607B
:101BE00093688B6093685960916008610168491C33
:101BF00001607047502080F31188BFF34F8FBFF30F
:101C00006F8F0A494868401C486001280CD1084879
:101C1000006810F0FF0F07D0502080F31188BFF349
:101C20004F8FBFF36F8FFEE7704700007C000020EE
:101C300004ED00E00849486828B1401E486001D121
:101C400080F311887047502080F31188BFF34F8FC5
:101C5000BFF36F8FFEE700007C00002070B5002806
:101C600027D0144DA0F108046168E868014207D14B
:101C7000502080F31188BFF34F8FBFF36F8FFEE7C3
:101C800022683AB1502080F31188BFF34F8FBFF321
:101C90006F8FFEE78143616000F03EF9606869681C
:101CA000084468602046FFF75DFEBDE8704000F024
:101CB0005FBB70BD640000204FF0E0200021016197
:101CC000816105494FF47A720968B1FBF2F1491E4E
:101CD00041610721016170472400002010B5FEF723
:101CE00059FA114910280ED300F1E02090F8F003C2
:101CF0000A78904207D2502080F31188BFF34F8FAB
:101D0000BFF36F8FFEE709480068896800F4E06060
:101D1000884207D9502080F31188BFF34F8FBFF35B
:101D20006F8FFEE710BD00007C0000200CED00E08E
:101D300010B51446030011D01048826BB2B102688E
:101D400041F000419161016818461831FFF746FFE4
:101D50002046BDE810400121FFF7ACBC502080F3C5
:101D60001188BFF34F8FBFF36F8FFEE7502080F3D2
:101D70001188BFF34F8FBFF36F8FFEE7280000205D
:101D800070B5194EB26BFAB141F000410160C46800
:101D900014B3FFF7D3FE201DFFF7D0FEE16A012543
:101DA000B26905FA01F01043B06101EB81000F49FF
:101DB00001EB8000211DFFF711FFE06A3168C96A5D
:101DC000884200D9756270BD502080F31188BFF33E
:101DD0004F8FBFF36F8FFEE7502080F31188BFF362
:101DE0004F8FBFF36F8FFEE72800002068030020AD
:101DF00010B586B00024039405AA04A903A804948E
:101E0000FFF7BCFEDDE903010094CDE901100023DA
:101E10000EA11048059A00F00EFA0F4900284863F9
:101E200011D0502080F31188BFF34F8FBFF36F8F15
:101E30004FF0FF3008630120C8614C6106B0BDE877
:101E4000104000F077B906B010BD000049444C4581
:101E500000000000751800082800002070B5044636
:101E6000FFF7C8FE294D04B92C68201DFFF766FE58
:101E700058B9E06A264A00EB800152F8211021B9D6
:101E800001218140A8698843A861A06A18B104F1C2
:101E90001800FFF753FE1E48211DDC30FFF79EFEA1
:101EA00094F850000026012801D184F85060FFF713
:101EB000C1FEE86928B1FFF79DFEFFF779FDFFF746
:101EC000B9FE2868844213D1E86990B1A86B38B193
:101ED000502080F31188BFF34F8FBFF36F8FFEE761
:101EE0000C494FF080500860BFF34F8FBFF36F8FE6
:101EF00070BD0748DC3000682969884201D12E6036
:101F000070BDBDE8704000F00FB800002800002050
:101F10006803002004ED00E00248816B491C8163E6
:101F200070470000280000201448816B11B1012186
:101F300041627047002141628169B1FA81F1C1F1CA
:101F40001F0101EB81020E4951F822306BB101EB08
:101F5000820101F108034A6852684A609A4201D13D
:101F600052684A60D16801607047502080F3118840
:101F7000BFF34F8FBFF36F8FFEE7000028000020F4
:101F80006803002070B51C20FFF75AFD040005D03F
:101F90000025201D2560FFF7FBFD2576204670BD3E
:101FA0002DE9F0410027884604000AD05FEA186056
:101FB0000FD0502080F31188BFF34F8FBFF36F8F86
:101FC000FEE7502080F31188BFF34F8FBFF36F8F70
:101FD000FEE7261D04F10C05FFF79EFF2168F0685F
:101FE00041EA0801216017E0D0E9001601F07F42C4
:101FF0005301236821F07F4102D40B4203D10AE050
:1020000031EA030307D1D20100D50F43216841F023
:102010000071FFF7B5FE3046A842E5D12068B8430D
:10202000206000F0A5F92068BDE8F0812DE9F047B7
:102030009A46DDF8209090460D4604004FF00007C8
:1020400009D0280E0FD0502080F31188BFF34F8F96
:10205000BFF36F8FFEE7502080F31188BFF34F8FDF
:10206000BFF36F8FFEE71DB100F010F940B112E031
:10207000502080F31188BFF34F8FBFF36F8FFEE7BF
:10208000B9F1000F07D0502080F31188BFF34F8FB4
:10209000BFF36F8FFEE7FFF73FFF266852462946E2
:1020A0003046FFF7C3FC30B1B8F1000F1AD02068FA
:1020B000A843206016E0B9F1000F13D0B8F1000F6B
:1020C00001D04FF08077BAF1000F01D047F0806760
:1020D00045EA07014A46201DFFF72AFE00F048F9AD
:1020E00018B10AE000F044F91FE011494FF08050A8
:1020F0000860BFF34F8FBFF36F8FFFF733FD0646C6
:10210000800110D4FFF776FD2668524629463046F6
:10211000FFF78CFC28B1B8F1000F02D02068A8436B
:102120002060FFF787FD26F07F463046BDE8F08748
:1021300004ED00E01CB5264908780190FF200870E6
:1021400008788DF800009DF800009DF8002000F050
:10215000F000904207D0502080F31188BFF34F8FDA
:10216000BFF36F8FFEE79DF800001A4B00F05000A0
:1021700018700720986005E09DF8002052008DF847
:102180000020401E9DF800201206F5D49860032818
:1021900007D0502080F31188BFF34F8FBFF36F8FAC
:1021A000FEE74FF440709860019808700A48016893
:1021B00041F470010160016841F070410160FFF776
:1021C0007BFD00205860FDF7AFFF00201CBD000024
:1021D00000E400E07C00002020ED00E02DE9FF5F3E
:1021E0008346DDE90E87994616468A469000FFF73A
:1021F00027FC05001CD05420FFF722FC040014D05B
:102200000020256384F85100CDE90240CDE9008724
:102210004B46324651465846FFF75CFB2046FFF7D7
:1022200081FA012004B0BDE8F09F2846FFF716FDB3
:102230004FF0FF30F6E7F0B585B0DDE90B640A9D9D
:10224000A6B1DCB1542700972663022684F85160BA
:10225000002604AFCDE90246CDE90057FFF73AFB6F
:102260002046FFF75FFA049805B0F0BD502080F3D8
:102270001188BFF34F8FBFF36F8FFEE7502080F3BD
:102280001188BFF34F8FBFF36F8FFEE70548C16919
:1022900019B1806B18B100207047012070470220EF
:1022A00070470000280000202DE9F0412E4C002747
:1022B000A06B40B1206A401C2062606A00B1012717
:1022C0003846BDE8F0816669761C666113D16068A6
:1022D000006838B1502080F31188BFF34F8FBFF3EF
:1022E0006F8FFEE76068A1686160A060A06A401C13
:1022F000A062FFF75DFB206BDFF87080864209D398
:102300006068006880B16068C068C56868688642B7
:102310000DD220632068C06A00EB800158F82100CC
:102320000128CAD90127C8E74FF0FF30F1E7281D7F
:10233000FFF704FCA86A18B105F11800FFF7FEFBCF
:10234000E86A0121A26981401143A16100EB80018B
:1023500008EB8100291DFFF741FCE86A2168C96A82
:102360008842CDD30127CBE7280000206803002056
:102370002DE9F0472C4D00242746A86B38B1FFF714
:1023800039FCA86B401EA863A86B40B146E0502002
:1023900080F31188BFF34F8FBFF36F8FFEE729697A
:1023A000224E0120D1B3A6F1B40980463068E8B1CD
:1023B000F068C46804F11800FFF7C0FB201DFFF7A8
:1023C000BDFBE06AAA6908FA00F11143A96100EBBC
:1023D000800109EB8100211DFFF700FCE06A2968FC
:1023E000C96A8842E2D3C5F82480DFE70CB1FFF761
:1023F000DFFA2C6A44B14646FFF756FF00B16E6221
:10240000641EF9D100202862686A38B108490127A2
:1024100038070860BFF34F8FBFF36F8FFFF70AFCD9
:102420003846BDE8F0870000280000201C0400208A
:1024300004ED00E02DE9F0410027040015D0FFF77E
:102440004DFC5020EFF3118580F31188BFF34F8FBF
:10245000BFF36F8F2046FFF7CFFA30B3154EB06B46
:1024600058B104F1180114481DE0502080F3118880
:10247000BFF34F8FBFF36F8FFEE7E06A3168C96A21
:10248000884200D30127201DFFF758FBE16A012095
:10249000B26988401043B06101EB81000649B4394C
:1024A00001EB8000211DFFF799FB85F31188384669
:1024B000BDE8F081280000201C040020142500083D
:1024C000E91100080000000000000000800000008A
:1024D00000000000000000000C2500081D1100088D
:1024E000020000000000000080000000000000006A
:1024F00000000000000000000000000001020304D2
:102500000607080900000000010203045461736B10
:102510003032000064656661756C745461736B00E1
:1025200040250008000000208C0000004C15000829
:10253000CC2500088C000020CC1300005C1500089E
:10254000000000000000000000000000000000008B
:10255000000000000000000001000000100000006A
:10256000000000000024F400000000000000000053
:10257000000000000000000000000000000000005B
:10258000000000000000000000000000000000004B
:10259000000000000000000000000000000000003B
:1025A000000000000000000000000000000000002B
:1025B000000000000000000000000000000000001B
:0C25C000AAAAAAAA000000000000000067
:04000005080000ED02
:00000001FF
